:020000040800F2
:10000000008001206D1300087112000873120008AF
:10001000751200087712000879120008000000002D
:100020000000000000000000000000007B1200083B
:100030007D120008000000007F12000881120008F5
:10004000BD130008BD130008BD130008BD13000850
:10005000BD130008BD130008BD130008BD13000840
:10006000BD130008BD130008BD130008BD13000830
:10007000BD130008BD130008BD130008BD13000820
:10008000BD130008BD130008BD13000800000000E8
:10009000000000000000000000000000BD13000888
:1000A000BD130008BD130008BD130008BD130008F0
:1000B000BD130008BD130008BD130008BD130008E0
:1000C000BD130008BD130008BD130008BD130008D0
:1000D000BD130008BD130008BD1300080000000098
:1000E000BD130008BD130008BD1300080000000088
:1000F000000000000000000000000000BD13000828
:1001000000000000BD130008BD130008BD13000867
:1001100000000000000000000000000000000000DF
:10012000BD130008BD130008BD130008BD1300086F
:10013000BD130008000000000000000000000000E7
:10014000000000000000000000000000BD130008D7
:10015000BD130008BD130008BD130008BD1300083F
:10016000BD130008BD1300080000000000000000DF
:10017000000000000000000000000000000000007F
:1001800000000000BD130008000000000000000097
:04019000BD13000893
:1001A00010B5054C237833B9044B13B10448AFF3B1
:1001B00000800123237010BD7000002000000000AB
:1001C000DC22000808B5034B1BB103490348AFF319
:1001D000008008BD0000000074000020DC22000840
:1001E00001F0FF01102A2BDB10F0070F08D010F8E8
:1001F000013B013A8B422DD010F0070F42B3F6D1EC
:10020000F0B441EA012141EA014122F007047FF004
:1002100000070023F0E80256083C85EA010586EA5B
:10022000010685FA47F5A3FA87F586FA47F6A5FA97
:1002300087F68EB9EED1F0BC01F0FF0102F00702A3
:1002400032B110F8013B013A83EA010313B1F8D14E
:100250000020704701387047002D06BF354603382F
:10026000073815F0010F07D1013015F4807F02BF68
:10027000013015F4C03F0130F0BC0138704700BFB9
:1002800053B94AB9002908BF00281CBF4FF0FF31FD
:100290004FF0FF3000F07AB9ADF1080C6DE904CEF3
:1002A00000F006F8DDF804E0DDE9022304B0704751
:1002B0002DE9F0478C460D460446089E002B51D18F
:1002C0008A4217466DD9B2FA82FEBEF1000F0BD0FA
:1002D000CEF1200C01FA0EF520FA0CFC02FA0EF712
:1002E0004CEA050C00FA0EF44FEA174A250CBCFB49
:1002F000FAF81FFA87F90AFB18CC45EA0C4508FB07
:1003000009F3AB420AD9ED1908F1FF3280F02381DD
:10031000AB4240F22081A8F102083D44ED1AA4B29C
:10032000B5FBFAF00AFB105544EA054400FB09F955
:10033000A14509D9E41900F1FF3380F00A81A145F4
:1003400040F2078102383C44A4EB090440EA08402B
:100350000021002E61D024FA0EF400233460736073
:10036000BDE8F0878B4207D9002E54D0002186E8E3
:1003700021000846BDE8F087B3FA83F1002940F078
:100380008E80AB4202D3824200F2FA80841A65EB7F
:1003900003050120AC46002E3FD086E81010BDE8D2
:1003A000F08712B90127B7FBF2F7B7FA87FEBEF163
:1003B000000F34D1EB1B3A0C1FFA87FC0121B3FB71
:1003C000F2F8250C02FB183345EA03450CFB08F351
:1003D000AB4207D9ED1908F1FF3002D2AB4200F26F
:1003E000D1808046ED1AA3B2B5FBF2F002FB1055A6
:1003F00043EA05440CFB00FCA44507D9E41900F1CD
:10040000FF3302D2A44500F2B8801846A4EB0C04D6
:1004100040EA08409DE731463046BDE8F087CEF11E
:10042000200405FA0EF307FA0EF720FA04F83A0C46
:1004300025FA04F448EA0308B4FBF2F14FEA184540
:1004400002FB11441FFA87FC45EA044501FB0CF34B
:10045000AB4200FA0EF409D9ED1901F1FF3080F03A
:100460008A80AB4240F2878002393D44EB1A1FFA82
:1004700088F5B3FBF2F002FB103345EA034500FBBD
:100480000CF3AB4207D9ED1900F1FF386FD2AB4244
:100490006DD902383D44EB1A40EA01418FE7C1F1C2
:1004A000200722FA07F88B4005FA01F448EA030313
:1004B00020FA07FE4FEA134CFD404EEA040EB5FB4E
:1004C000FCF94FEA1E440CFB19551FFA83F844EA65
:1004D000054509FB08F4AC4202FA01F200FA01FA00
:1004E00008D9ED1809F1FF3043D2AC4241D9A9F146
:1004F00002091D442D1B1FFA8EFEB5FBFCF00CFB00
:1005000010554EEA054400FB08F8A04507D9E41849
:1005100000F1FF3529D2A04527D902381C4440EA12
:100520000940A4EB0804A0FB02894C45C6464D4691
:1005300015D312D056B1BAEB0E0364EB050404FADE
:1005400007F7CB401F43CC40376074600021BDE803
:10055000F0871846F8E69046E0E6C245EAD2B8EBE6
:10056000020E69EB03050138E4E72846D7E7404669
:1005700091E78146BEE7014678E702383C4445E70B
:10058000084608E7A8F102083D442BE7704700BF82
:1005900038B50E4A0E4B054618784FF47A73B3FB04
:1005A000F0F31068B0FBF3F000F09CF8044658B983
:1005B0000F2D09D8024629464FF0FF3000F05EF8B3
:1005C000044B20461D6038BD012038BD08000020C6
:1005D000000000200400002008B50B4B1A6842F40C
:1005E00000721A601A6842F480621A601A6842F453
:1005F00080721A60032000F02FF80020FFF7C8FF78
:1006000000F0E2FD002008BD003C0240034A044B1C
:1006100011681B780B441360704700BF98000020DE
:1006200000000020014B1868704700BF98000020B0
:1006300038B50446FFF7F6FF631C1CBF054B1B785B
:10064000054618BFE418FFF7EDFF401B8442FAD8B7
:1006500038BD00BF00000020074AD36823F4E063E0
:100660001B041B0C43F0BF63000243F4003300F48F
:10067000E0600343D360704700ED00E0174B30B5F6
:10068000DC68C4F30224C4F10703251D042B28BF32
:100690000423062D4FF0010505FA03F303F1FF33A0
:1006A0008CBF033C00241940A14005FA04F4013C2E
:1006B0002240002842EA01024FEA0212AFBF00F1D5
:1006C000604000F00F00064BD2B2A5BF00F56140BC
:1006D000D2B21A5480F8002330BD00BF00ED00E014
:1006E00014ED00E00138B0F1807F0AD2064B074AD2
:1006F0005860F02182F823100020072298601A60C9
:1007000070470120704700BF10E000E000ED00E0FE
:100710002DE9F04F85B00B68DFF89C81644A0193A6
:100720004FF001090023019C09FA03F707EA0406C8
:10073000B74240F0AD804C6824F0100ABAF1020FC5
:1007400016D14FEAD30C00EB8C0C03F0070BDCF84E
:1007500020504FEA8B0B4FF00F0E0EFA0BFE25EADE
:100760000E0E0D6905FA0BF545EA0E05CCF8205082
:100770004FEA430C0325D0F800B005FA0CF5ED4321
:1007800004F0030E0BEA050B0EFA0CFE0AF1FF3A19
:100790004EEA0B0EBAF1010F0095C0F800E015D833
:1007A000D0F808E005EA0E0ECD6805FA0CFA4AEA20
:1007B0000E0EC0F808E0D0F804E02EEA0707C4F3F4
:1007C000001E0EFA03FE4EEA07074760C768009D49
:1007D0003D408F6807FA0CF73D43C560E50057D5EB
:1007E0004FF0000BCDF80CB0D8F84470314D47F401
:1007F0008047C8F84470D8F8447007F480470397DE
:10080000039F23F0030707F1804707F59C3703F0A8
:10081000030CD7F808A04FEA8C0C4FF00F0E0EFA1D
:100820000CFEA8422AEA0E0E39D005F58065A842D2
:1008300037D005F58065A84235D005F58065A8421A
:1008400033D005F58065A84214BF0725042505FAB5
:100850000CF545EA0E05BD601568F74314F4803FBA
:100860000CBF3D4035431560556814F4003F0CBF84
:100870003D4035435560956814F4801F0CBF3D40E2
:1008800035439560D568A40254BF3D403543D560DB
:100890000133102B7FF447AF05B0BDE8F08F5D4604
:1008A000D5E70125D3E70225D1E70325CFE700BF30
:1008B000003C014000000240003802400AB1816162
:1008C00070470904FBE700002DE9F341044618B91D
:1008D000012002B0BDE8F0810368DD0710D4236871
:1008E000980758D423681A0700F19A8023685B0799
:1008F00000F1B880A269002A40F019810020E8E7E1
:10090000A64B9A6802F00C02042A07D09A6802F0FB
:100910000C02082A0AD15B68590207D59F4B1B6855
:100920009A03DCD56368002BD9D1D1E763689B4D6E
:10093000B3F5803F11D12B6843F480332B60FFF770
:1009400071FE964D06462B689B03C8D4FFF76AFEDE
:10095000801B6428F7D90320BBE7B3F5A02F04D18F
:100960002B6843F480232B60E5E72A6822F4803269
:100970002A602A6822F480222A60002BDFD1FFF748
:1009800051FE06462B689F03A9D5FFF74BFE801B3F
:100990006428F7D9DFE7814B9A6812F00C0F07D073
:1009A0009A6802F00C02082A11D15B685E020ED42C
:1009B0007A4B1A68950702D5E268012A88D11A682D
:1009C000216922F0F80242EAC1021A608AE7E2686D
:1009D000734BB2B101221A60FFF724FE6F4D064639
:1009E0002B68980707D52B68226923F0F80343EAA0
:1009F000C2032B6076E7FFF715FE801B0228EFD9B4
:100A0000A9E71A60FFF70EFE644D06462B689907AA
:100A10007FF568AFFFF706FE801B0228F6D99AE73C
:100A20006269604B7AB101221A60FFF7FBFD5B4DF2
:100A300006466B6F9F073FF559AFFFF7F3FD801B2D
:100A40000228F6D987E71A60FFF7ECFD534D0646FA
:100A50006B6F98077FF54AAFFFF7E4FD801B022814
:100A6000F6D978E74D4B1A6C12F0805228D10192DA
:100A70001A6C42F080521A641B6C03F0805301938D
:100A8000019B0126484D2B68D9051BD5A368434D12
:100A9000012B27D12B6F43F001032B67FFF7C2FD1A
:100AA0003E4D074641F288382B6F9B0739D5002E03
:100AB0003FF420AF394A136C23F08053136419E7D5
:100AC0000026DFE72B6843F480732B60FFF7AAFD55
:100AD00007462B68DA05D9D4FFF7A4FDC01B02280E
:100AE000F7D938E7052B04D12B6F43F004032B67AC
:100AF000D0E72A6F22F001022A672A6F22F004024F
:100B00002A67002BCAD1FFF78DFD41F288380746CE
:100B10002B6F9807CBD5FFF785FDC01B4045F7D954
:100B200019E7FFF77FFDC01B4045BDD913E71B4DFB
:100B3000AB6803F00C03082B3FF4CAAE1B4E002336
:100B4000022A336034D1FFF76DFD07462B68990107
:100B50001ED4226AE3691343626A43EA8213E26A9B
:100B600043EA0263A26A0D4C5208013A43EA024387
:100B70006B6001233360FFF755FD054623689A013A
:100B80003FF5BCAEFFF74EFD401B0228F6D9E2E66A
:100B9000FFF748FDC01B0228D8D9DCE60038024028
:100BA00000004742800E474200700040600047420C
:100BB000FFF738FD04462B689B017FF59FAEFFF7DA
:100BC00031FD001B0228F6D9C5E600BF134908B560
:100BD0008B6803F00C03042B03D0082B03D01048C0
:100BE00008BD104808BD4A684B68496813F4800383
:100BF00014BF0C480A48C1F3881118BF002302F043
:100C00003F02A1FB0001FFF73BFB044B5B68C3F312
:100C1000014301335B00B0FBF3F008BD0038024034
:100C20000024F40000127A002DE9F0410D4604463C
:100C300010B90120BDE8F081444B1A6802F00F02A0
:100C40008A4228D321688F072DD4C80740D43F4B50
:100C50001A6802F00F02954266D3226851076CD4DD
:100C6000130707D53A4A2169936823F4604343EA9E
:100C7000C1039360FFF7AAFF354B364A9B68C3F365
:100C80000313D35CD840344B18600020FFF780FC7E
:100C90000020BDE8F081CAB21A701B6803F00F0390
:100CA0009942C6D1CEE72A4B11F0040F1EBF9A68B5
:100CB00042F4E0529A600E0742BF9A6842F46042E2
:100CC0009A609A68A06822F0F00202439A60BCE73A
:100CD00062681F4B012A1DD11B6813F4003FA8D086
:100CE0001B4EB36823F003031343B360FFF79AFC72
:100CF00041F288380746B368626803F00C03B3EB2F
:100D0000820FA4D0FFF78EFCC01B4045F3D903200F
:100D1000BDE8F081911E01291B6802D813F0007F05
:100D2000DDE713F0020FDAE7EAB21A701B6803F08E
:100D30000F039D427FF47DAF8FE70549E0688B6824
:100D400023F4E05303438B608AE700BF003C02407A
:100D5000003802405123000808000020044B054AD7
:100D60009B68C3F38223D35C034A1068D840704762
:100D7000003802406123000808000020044B054AA7
:100D80009B68C3F34233D35C034A1068D840704772
:100D90000038024061230008080000202DE9F047D8
:100DA0000668C2683369C16923F440531343336151
:100DB000044683680069F2680343606922F41642BE
:100DC000034322F00C020B431343F3607369A269DF
:100DD00023F440731343B1F5004F73617A4B7CD118
:100DE0009E4203D003F580639E4244D1FFF7C6FFC5
:100DF000192505FB00F360684FF064094000B3FB60
:100E0000F0F3B3FBF9F34FEA0318FFF7B7FF63689A
:100E100068435B00B0FBF3F7FFF7B0FF636868431C
:100E20005B00B0FBF3F3B3FBF9F309FB1373DB00D7
:100E30003233B3FBF9F35B0003F4F877FFF79EFF5F
:100E4000626868435200B0FBF2FAFFF797FF6368ED
:100E500068435B00B0FBF3F3B3FBF9F309FB13A3A7
:100E6000DB003233B3FBF9F303F0070343443B44A5
:100E7000B360BDE8F087FFF771FF192505FB00F3AC
:100E800060684FF064094000B3FBF0F3B3FBF9F383
:100E90004FEA0318FFF762FF636868435B00B0FB2B
:100EA000F3F7FFF75BFF636868435B00B0FBF3F3A6
:100EB000B3FBF9F309FB1373DB003233B3FBF9F334
:100EC0005B0003F4F877FFF749FF6268684352005C
:100ED000B0FBF2FAFFF742FFB9E79E4202D03B4B6C
:100EE0009E4240D1FFF74AFF676819254FF0640919
:100EF00005FB00F3BF00B3FBF7F3B3FBF9F31F01EE
:100F0000FFF73CFF636868439B00B0FBF3F8FFF713
:100F100035FF636868439B00B0FBF3F3B3FBF9F361
:100F200009FB13831B013233B3FBF9F303F0F00821
:100F3000FFF724FF626868439200B0FBF2FAFFF704
:100F40001DFF636868439B00B0FBF3F3B3FBF9F349
:100F500009FB13A31B013233B3FBF9F303F00F03B7
:100F600043EA080383E7FFF7F9FE676819254FF0A6
:100F7000640905FB00F3BF00B3FBF7F3B3FBF9F320
:100F80001F01FFF7EBFE636868439B00B0FBF3F8BB
:100F9000FFF7E4FE636868439B00B0FBF3F3B3FB29
:100FA000F9F309FB13831B013233B3FBF9F303F0AD
:100FB000F008FFF7D3FE626868439200B0FBF2FAD4
:100FC000FFF7CCFEBDE700BF001001400014014058
:100FD00010B5044640B390F8393003F0FF021BB956
:100FE00080F8382000F010F92268242384F8393082
:100FF000D36823F40053D3602046FFF7CFFE236865
:101000001A6922F490421A615A6922F02A025A613E
:10101000DA6842F40052DA6000202023E06384F8AA
:10102000393084F83A3010BD012010BD30B595B08C
:101030003022002108A800F0EDF90021142203A8B5
:1010400000F0E8F900241C4B01941A6C42F0805225
:101050001A641B6C194A03F080530193019B02949C
:10106000136823F4404343F40043136013680F9460
:1010700003F440430293029B01230B9310230C9330
:1010800010934FF4A873119304230225129308A818
:101090000723139308950E95FFF716FC0F23039370
:1010A00029464FF4805303A80495059406930794AA
:1010B000FFF7BAFD15B030BD0038024000700040A7
:1010C00010B532208AB0FFF7B3FA354800F01EFAA7
:1010D000344800F01BFA0C21334800F0A3F9032137
:1010E000324800F09FF9FFF777FAFFF79FFF1422CD
:1010F00000210DEB020000F08DF900242C4B01942F
:101100001A6B2C4842F004021A631A6B02F00402B4
:101110000192019A02941A6B42F080021A631A6BD0
:1011200002F080020292029A03941A6B42F00102CA
:101130001A631A6B02F001020392039A04941A6B69
:1011400042F002021A631B6B03F00203224604936F
:101150002021049BFFF7B2FB4FF40053059305A930
:10116000154B164806930794FFF7D2FA20230593F0
:1011700010480794012305A906930894FFF7C8FABD
:101180000F48104A84604FF4E13380E80C000C23D0
:10119000C460046143618461C461FFF719FFFEE725
:1011A000F4220008F72200080A2300082A23000876
:1011B00000380240000002400000211000080240F8
:1011C0009C0000200044004007B50E4B0021009118
:1011D0005A6C42F480425A645A6C02F48042009283
:1011E000009A01911A6C42F080521A641B6C03F051
:1011F000805301930720019BFFF72EFA03B05DF89F
:1012000004FB00BF0038024010B5044688B0142229
:10121000002103A800F0FEF82268134B9A4220D167
:1012200003F5FA33002101911A6C104842F40032A0
:101230001A641A6C02F400320192019A02911A6B3C
:1012400042F001021A631B6B03F001030293029B3D
:101250000C2303930223049303A907230793FFF7A7
:1012600057FA08B010BD00BF004400400000024023
:101270007047FEE7FEE7FEE7FEE7704770477047FE
:10128000FFF7C4B970B50E4615460C46A31B9D4228
:1012900001DC284670BDAFF3008004F8010BF5E7D0
:1012A00010B500234FF06044934201DB104610BD9F
:1012B000D4F8800EC00703D5D4F8000EC00702D4BE
:1012C0000133F1E700BF20680028FBD0C85C207024
:1012D000F6E7000008B50A4B1968024609B9094942
:1012E00019601868694602448A4206D900F068F815
:1012F0000C2303604FF0FF3008BD1A6008BD00BF2B
:101300008C000020E00000204FF0FF3070474FF4C9
:1013100000534B6000207047012070470020704749
:101320000F49D1F8883043F47003C1F888300D4B71
:101330001A68002042F001021A6098601A6822F0D0
:10134000847222F480321A60074A5A601A6822F4C2
:1013500080221A60D8604FF000638B60704700BF36
:1013600000ED00E00038024010300024DFF834D0F7
:10137000002103E00C4B5B58435004310B480C4BED
:1013800042189A42F6D30B4A02E0002342F8043B8B
:10139000094B9A42F9D3FFF7C3FF00F017F8FFF7A4
:1013A0008FFE7047008001201424000800000020F8
:1013B0007000002070000020E0000020FEE7000028
:1013C000014B1868704700BF0C00002070B50D4E2F
:1013D0000D4CA41BA4100025A54209D10B4E0C4CAA
:1013E00000F07CFFA41BA4100025A54205D170BD10
:1013F00056F8253098470135EEE756F825309847DE
:101400000135F2E70C2400080C2400080C24000825
:101410001024000802440346934200D1704703F8A9
:10142000011BF9E70FB40A4B13B51C6824B1A3697B
:1014300013B9204600F024FA05AB049AA168019381
:10144000204600F0E1FB02B0BDE8104004B0704758
:101450000C00002070B50E46054618B183690BB923
:1014600000F00EFAAB69AC6813B9284600F008FA30
:10147000234B9C4217D16C68A3891B071DD5236998
:10148000DBB1013EA36816F8011F013BA360E9B977
:10149000002B2EDA22460A21284600F03FF80130C0
:1014A00011D00A2070BD174B9C4201D1AC68E3E714
:1014B000154B9C4208BFEC68DEE72146284600F049
:1014C0007FF80028DDD04FF0FF3070BD002B04DA2C
:1014D000A269934206DB0A2904D023685A1C2260C1
:1014E0001970CFE72246284600F018F80130C9D11C
:1014F000E9E723680A205A1C2260187070BD00BFFB
:1015000090230008B023000870230008024B014616
:101510001868FFF79FBF00BF0C000020F8B50E460B
:101520001446054618B183690BB900F0A9F9214B9F
:101530009C422AD16C68A369A360A3891A072ED59F
:10154000236963B323692068C01A6369F6B29842BD
:10155000374604DB2146284600F028F928BBA3685B
:10156000013BA36023685A1C22601E70636901302E
:10157000984204D0A389DB0719D50A2E17D121463A
:10158000284600F013F990B10FE00B4B9C4201D1BB
:10159000AC68D0E7094B9C4208BFEC68CBE721461A
:1015A000284600F00DF80028CCD04FF0FF37384621
:1015B000F8BD00BF90230008B02300087023000886
:1015C000324B70B51D6806460C4625B1AB6913B9A0
:1015D000284600F055F92E4B9C420FD16C68B4F9A7
:1015E0000C309AB215072CD4D00611D409223260DF
:1015F00043F04003A3814FF0FF3070BD254B9C4268
:1016000001D1AC68EBE7244B9C4208BFEC68E6E7ED
:10161000510712D5616B41B104F14403994202D0E4
:10162000304600F01BFA00236363A38923F02403F0
:10163000A3810023636023692360A38943F0080327
:10164000A38123694BB9A38903F42073B3F5007F09
:1016500003D02146304600F0C1F9A28912F00103FF
:101660000CD00023A36063695B42A361236953B973
:10167000B4F90C3013F08000BAD170BD920758BF96
:101680006369A360F2E70020F7E700BF0C000020C9
:1016900090230008B0230008702300088A892DE9F0
:1016A000F041054610070C465AD44B68002B05DC68
:1016B0000B6C002B02DC0020BDE8F081E66A002EF6
:1016C000F9D0002312F480522F682B6033D0606D64
:1016D000A3895A0705D56368C01A636B0BB1236CE5
:1016E000C01A00230246E66A216A2846B047431C16
:1016F000A38906D129681D294BD82B4ACA40D60791
:1017000047D500226260D9042269226004D5421CB8
:1017100001D12B6803B96065616B2F600029CAD0C5
:1017200004F14403994202D0284600F097F90020C2
:101730006063BDE8F081216A01232846B047411C5F
:10174000C6D12B68002BC3D01D2B01D0162B01D185
:101750002F60B0E7A38943F04003A381BDE8F08187
:101760000F69002FA7D093070E6808BF4B690F6061
:1017700018BF0023A6EB07088B60B8F1000F9ADDB5
:1017800043463A46216AA66A2846B047002807DC45
:10179000A38943F04003A3814FF0FF30BDE8F081FF
:1017A0000744A8EB0008E8E70100402038B50B69C2
:1017B00005460C46DBB118B183690BB900F060F83F
:1017C0000C4B9C4209D16C68B4F90C307BB12146BA
:1017D0002846BDE83840FFF761BF074B9C4201D166
:1017E000AC68F1E7054B9C4208BFEC68ECE70020D1
:1017F00038BD00BF90230008B02300087023000804
:10180000014900F0A9B800BFAD170008002310B5CA
:10181000044603604360836081814366C281036143
:1018200043618361194608225C30FFF7F3FD054BE5
:101830006362054BA362054BE362054B246223639D
:1018400010BD00BF81210008A3210008DB21000892
:10185000FF21000870B54A1E682555430E4605F164
:10186000740100F049F9044640B1002180E84200CB
:101870000C30A06005F16802FFF7CCFD204670BD7A
:10188000836910B5044633BB8364C3640365124B9C
:10189000124A1B688262984204BF0123836100F0F0
:1018A0001FF86060204600F01BF8A060204600F0A2
:1018B00017F80022E06004216068FFF7A7FF01220B
:1018C0000921A068FFF7A2FF02221221E068FFF7BA
:1018D0009DFF0123A36110BD6C23000801180008BF
:1018E000F8B51C4B1E68B369074613B93046FFF7BD
:1018F000C7FF4836B4687368013B03D5336833B11A
:101900003668F7E7B4F90C506DB16834F4E7042198
:101910003846FFF79FFF30600028F1D10C233B6071
:1019200004462046F8BD4FF6FF73E3810123A381EF
:1019300065662560A560656025616561A561082211
:10194000294604F15C00FFF765FD6563A563A564A6
:10195000E564E6E76C2300082DE9F84380468946F4
:1019600000F14804002614B93046BDE8F883A568A4
:101970006768013F01D52468F5E7AB89012B07D9DA
:10198000B5F90E30013303D029464046C847064317
:101990006835EEE770B50E46B1F90E10002990B02B
:1019A00014461D4607DA00232B60B3891A0610D4AB
:1019B0004FF480630EE001AA00F048FC0028F2DB3F
:1019C000029A02F47042A2F500535A425A412A6028
:1019D000EEE740230020236010B070BD8B8973B503
:1019E0009D0706460C4607D504F147032360236193
:1019F0000123636102B070BD01AB6A46FFF7CAFF05
:101A000000990546304600F077F848B9B4F90C3033
:101A10009A05EFD423F0030343F00203A381E3E725
:101A20000D4BB362A389206043F08003A381009B28
:101A30006361019B20615BB1B4F90E10304600F088
:101A400017FC28B1A38923F0030343F00103A3810A
:101A5000A3891D43A581CDE70118000838B50546C7
:101A6000002945D051F8043C0C1F002BB8BFE418E6
:101A700000F020FC1F4A1368104633B963601460FD
:101A80002846BDE8384000F016BCA3420CD92168B6
:101A90006218934204BF1A685B68636004BF5218FF
:101AA00022600460ECE713465A680AB1A242FAD9F0
:101AB00019685818A0420BD1206801445818824276
:101AC0001960DDD1106852685A6001441960D7E787
:101AD00002D90C232B60D3E7206821188A4204BF67
:101AE00011685268626004BF091821605C60C7E732
:101AF00038BD00BF9000002070B5CD1C25F0030557
:101B000008350C2D38BF0C25002D064601DBA942F7
:101B100003D90C233360002070BD00F0CBFB234AB7
:101B20001468214691B9224C23681BB9304600F055
:101B300017FB20602946304600F012FB431C26D1DB
:101B40000C233360304600F0B6FBE4E70B685B1B08
:101B50001AD40B2B0FD90B60CD50CC18304600F0A7
:101B6000AAFB04F10B00231D20F00700C31A1BD0B1
:101B70005A42E25070BD8C420DBF63684B6863608F
:101B8000136018BF0C46E9E70C464968CAE7C41C55
:101B900024F00304A04205D0211A304600F0E0FAF8
:101BA0000130CDD02560D9E770BD00BF9000002086
:101BB000940000209368013B002B10B4936009DA75
:101BC0009469A34202DBCBB20A2B03D15DF8044B2C
:101BD000FFF7A4BC1368581C10601970C8B25DF8F8
:101BE000044B7047F8B506460F461446D518AC426C
:101BF00001D1002007E03A4614F8011B3046FFF7F8
:101C0000D9FF431CF3D1F8BD2DE9F04F9DB00C4630
:101C100017460393064618B183690BB9FFF730FEE8
:101C20007C4B9C4257D17468A38918075DD5236902
:101C3000002B5AD00023099320238DF8293030231C
:101C40008DF82A304FF0010BB846454615F8013B98
:101C5000002B55D1B8EB070A0BD053463A46214624
:101C60003046FFF7BFFF013000F0C480099B5344AA
:101C7000099398F80030002B00F0BC8000234FF04F
:101C8000FF3204930793059206938DF853301A930D
:101C9000052229786048FEF7A3FA05F10108049BA4
:101CA000002831D1D90644BF20228DF853201A07CD
:101CB00044BF2B228DF853202A782A2A2CD0079A49
:101CC00000210A20A846013598F80030303B092B46
:101CD0006DD971B326E0514B9C4201D1B468A3E7A2
:101CE0004F4B9C4208BFF4689EE721463046FFF701
:101CF00067FC00289ED04FF0FF301DB0BDE8F08F8C
:101D0000252BA7D0A846A0E7434A801A0BFA00F07B
:101D1000184304904546BBE7039A111D12680391CE
:101D2000002A01DB079204E0524243F002030792CB
:101D3000049398F800302E2B10D198F801302A2BFC
:101D400008F1010137D1039B1A1D1B680392002B78
:101D5000B8BF4FF0FF3308F102080593314D98F8F2
:101D6000001003222846FEF73BFA40B14023401BF7
:101D700003FA00F0049B0343049308F1010898F868
:101D8000001029488DF82810062208F10107FEF7F7
:101D900027FA002834D0254B03BB039B073323F0DD
:101DA000070308330393099B4B4409934CE700FB5B
:101DB0000232012186E70023059318460A2588464A
:101DC000013198F80020303A092A03D9002BC5D0F8
:101DD0000590C3E705FB00200123F0E703AB009368
:101DE0002246134B04A93046AFF30080B0F1FF3F09
:101DF0008146D8D1A3895B063FF57DAF09987CE782
:101E000003AB009322460A4B04A9304600F088F841
:101E1000ECE700BF90230008D0230008B02300089F
:101E200070230008D6230008DA2300080000000011
:101E3000E51B00082DE9F04791461F468A680B69AB
:101E4000DDF820809342B8BF1346C9F8003091F8FE
:101E5000432006460C4612B10133C9F8003023680E
:101E6000990642BFD9F800300233C9F8003025681E
:101E700015F0060507D104F1190AE368D9F8002026
:101E80009B1A9D4229DB94F843302268003318BF27
:101E9000012392062ED404F1430239463046C0474E
:101EA000013021D02368E568D9F8002003F006034B
:101EB000042B08BFAD1AA36822690CBF25EAE5759B
:101EC00000259342C4BF9B1AED184FF000091A3445
:101ED0004D451BD10020BDE8F0870123524639460D
:101EE0003046C047013003D14FF0FF30BDE8F087E6
:101EF0000135C2E7E1185A1C302081F84300224422
:101F000094F8451082F843100233C4E701232246B7
:101F100039463046C0470130E6D009F10109D7E71C
:101F20002DE9F04317460A7E85B06E2A984606468C
:101F30000C460C9B01F1430E00F0BC801AD8632ABA
:101F40002ED00AD8002A00F0C880582A00F08A80D3
:101F500004F1420584F842202AE0642A01D0692A6B
:101F6000F6D121681A6811F0800F23D0111D196075
:101F7000136827E0732A00F0B48008D86F2A2AD0AB
:101F8000702AE5D10A6842F020020A6003E0752A4F
:101F900021D0782ADCD1782284F845206E4964E08B
:101FA0001A6801F14205111D1960136884F8423066
:101FB0000123A3E011F0400F02F104011960D7D012
:101FC000B2F90030002B03DA2D225B4284F8432063
:101FD00062490A2217E02068196810F0800F03D0C8
:101FE000081D18600B6806E010F0400F01F10400B6
:101FF0001860F7D00B8859496F2A14BF0A220822AB
:10200000002084F843006568A560002DC0F29C8024
:10201000206820F004002060002B3FD1002D40F00C
:1020200095807546082A0BD12368DA0708D52369FD
:1020300062689A42DEBF302305F8013C05F1FF35A6
:10204000AEEB05032361CDF800803B4603AA214691
:102050003046FFF7EFFE013055D14FF0FF3005B0AD
:10206000BDE8F08381F845203C492268186812F0E9
:10207000800F00F104051D6001D0036802E05506E1
:10208000FBD50388D00744BF42F0200222601BB971
:10209000226822F0200222601022B1E77546B3FBCD
:1020A000F2F002FB1033CB5C05F8013D034600283B
:1020B000F5D1B7E708681A68496910F0800F04D0B5
:1020C000101D18601368196007E010F0400F02F14E
:1020D000040018601368F6D0198000232361754648
:1020E000B1E71A68111D1960156862680021284659
:1020F000FEF776F808B1401B606063682361002337
:1021000084F843309FE723692A4639463046C04762
:102110000130A2D023689B0707D5002504F11909D7
:10212000E368039A9B1A9D4205DBE068039B984293
:10213000B8BF184693E701234A4639463046C047A0
:1021400001308AD00135EBE7002BA7D10B7884F85A
:10215000423004F1420565E7F2230008E12300085C
:1021600038B5064C0023054608462360FFF7B2F851
:10217000431C02D1236803B12B6038BDDC00002072
:1021800010B50C46B1F90E1000F096F80028ABBF60
:10219000636DA3891B1823F48053ACBF6365A381CF
:1021A00010BD2DE9F0411F468B89DB0505460C4625
:1021B000164605D502230022B1F90E1000F068F88A
:1021C000A389B4F90E1023F48053A38132463B4611
:1021D0002846BDE8F04100F017B810B50C46B1F93B
:1021E0000E1000F055F8431CA38915BF606523F459
:1021F000805343F48053A38118BFA38110BDB1F96C
:102200000E1000F013B8000038B5074C054608461C
:102210001146002222601A46FFF742F8431C02D101
:10222000236803B12B6038BDDC00002038B5064CB4
:102230000023054608462360FFF766F8431C02D1D9
:10224000236803B12B6038BDDC00002038B5074C93
:1022500000230546084611462360FFF758F8431C43
:1022600002D1236803B12B6038BD00BFDC00002021
:1022700038B5064C0023054608462360FFF74CF8A6
:10228000431C02D1236803B12B6038BDDC00002061
:1022900038B5074C054608461146002222601A460A
:1022A000FFF73CF8431C02D1236803B12B6038BD13
:1022B000DC0000207047704738B5074C05460846DB
:1022C0001146002222601A46FEF7DCFF431C02D1B1
:1022D000236803B12B6038BDDC000020F8B500BFD7
:1022E000F8BC08BC9E467047F8B500BFF8BC08BCF7
:0422F0009E4670474F
:1022F4004F6900496E6963696F20646F2066697273
:102304006D77617265004120736F6D6120646F7336
:10231400206E756D65726F7320706172657320E94C
:102324003A2025640A0041207175616E7469646104
:102334006465206465206E756D65726F7320696DC8
:10234400706172657320E93A2025640A0000000078
:102354000000000000010203040607080900000051
:10236400000102030400000010000020000000002F
:102374000000000000000000000000000000000059
:102384000000000000000000000000000000000049
:102394000000000000000000000000000000000039
:1023A4000000000000000000000000000000000029
:1023B4000000000000000000000000000000000019
:1023C400000000000000000000000000232D302B5E
:1023D4002000686C4C006566674546470030313222
:1023E4003334353637383941424344454600303179
:1023F40032333435363738396162636465660000D8
:08240400ACDEFF7F01000000C7
:04240C00C5010008FE
:04241000A10100081E
:1024140001000000100000000024F400100000205F
:102424000000000090230008B02300087023000877
:102434000000000000000000000000000000000098
:102444000000000000000000000000000000000088
:102454000000000000000000000000000000000078
:102464000000000000000000000000000000000068
:102474000000000000000000000000000000000058
:040000050800136D6F
:00000001FF
